{
  "contractName": "Poll",
  "abi": [
    {
      "inputs": [],
      "payable": false,
      "stateMutability": "nonpayable",
      "type": "constructor"
    },
    {
      "constant": true,
      "inputs": [],
      "name": "coinCount",
      "outputs": [
        {
          "internalType": "uint256",
          "name": "",
          "type": "uint256"
        }
      ],
      "payable": false,
      "stateMutability": "view",
      "type": "function"
    },
    {
      "constant": true,
      "inputs": [
        {
          "internalType": "uint256",
          "name": "",
          "type": "uint256"
        }
      ],
      "name": "coins",
      "outputs": [
        {
          "internalType": "uint256",
          "name": "id",
          "type": "uint256"
        },
        {
          "internalType": "string",
          "name": "name",
          "type": "string"
        },
        {
          "internalType": "uint256",
          "name": "firstPlaceCount",
          "type": "uint256"
        },
        {
          "internalType": "uint256",
          "name": "secondPlaceCount",
          "type": "uint256"
        },
        {
          "internalType": "uint256",
          "name": "thirdPlaceCount",
          "type": "uint256"
        }
      ],
      "payable": false,
      "stateMutability": "view",
      "type": "function"
    },
    {
      "constant": true,
      "inputs": [
        {
          "internalType": "uint256",
          "name": "",
          "type": "uint256"
        }
      ],
      "name": "voteList",
      "outputs": [
        {
          "internalType": "address",
          "name": "",
          "type": "address"
        }
      ],
      "payable": false,
      "stateMutability": "view",
      "type": "function"
    },
    {
      "constant": true,
      "inputs": [
        {
          "internalType": "address",
          "name": "",
          "type": "address"
        }
      ],
      "name": "voters",
      "outputs": [
        {
          "internalType": "bool",
          "name": "",
          "type": "bool"
        }
      ],
      "payable": false,
      "stateMutability": "view",
      "type": "function"
    },
    {
      "constant": true,
      "inputs": [],
      "name": "getTotalCoins",
      "outputs": [
        {
          "internalType": "uint256",
          "name": "",
          "type": "uint256"
        }
      ],
      "payable": false,
      "stateMutability": "view",
      "type": "function"
    },
    {
      "constant": true,
      "inputs": [],
      "name": "getVoteList",
      "outputs": [
        {
          "internalType": "address[]",
          "name": "",
          "type": "address[]"
        }
      ],
      "payable": false,
      "stateMutability": "view",
      "type": "function"
    },
    {
      "constant": false,
      "inputs": [
        {
          "internalType": "uint256[]",
          "name": "coinIds",
          "type": "uint256[]"
        }
      ],
      "name": "rank",
      "outputs": [],
      "payable": false,
      "stateMutability": "nonpayable",
      "type": "function"
    }
  ],
  "bytecode": "0x608060405234801561001057600080fd5b506100556040518060400160405280600381526020017f42544300000000000000000000000000000000000000000000000000000000008152506100e260201b60201c565b6100996040518060400160405280600381526020017f45544800000000000000000000000000000000000000000000000000000000008152506100e260201b60201c565b6100dd6040518060400160405280600481526020017f41564158000000000000000000000000000000000000000000000000000000008152506100e260201b60201c565b610225565b6002600081548092919060010191905055506040518060a0016040528060025481526020018281526020016000815260200160008152602001600081525060016000600254815260200190815260200160002060008201518160000155602082015181600101908051906020019061015b929190610180565b5060408201518160020155606082015181600301556080820151816004015590505050565b828054600181600116156101000203166002900490600052602060002090601f016020900481019282601f106101c157805160ff19168380011785556101ef565b828001600101855582156101ef579182015b828111156101ee5782518255916020019190600101906101d3565b5b5090506101fc9190610200565b5090565b61022291905b8082111561021e576000816000905550600101610206565b5090565b90565b610796806102346000396000f3fe608060405234801561001057600080fd5b506004361061007d5760003560e01c80637f6052ce1161005b5780637f6052ce1461011d578063a3989703146101d5578063a3ec138d14610243578063c66106571461029f5761007d565b8063289fc9d2146100825780633a03ca43146100a0578063678fd289146100ff575b600080fd5b61008a610362565b6040518082815260200191505060405180910390f35b6100a861036c565b6040518080602001828103825283818151815260200191508051906020019060200280838360005b838110156100eb5780820151818401526020810190506100d0565b505050509050019250505060405180910390f35b6101076103fa565b6040518082815260200191505060405180910390f35b6101d36004803603602081101561013357600080fd5b810190808035906020019064010000000081111561015057600080fd5b82018360208201111561016257600080fd5b8035906020019184602083028401116401000000008311171561018457600080fd5b919080806020026020016040519081016040528093929190818152602001838360200280828437600081840152601f19601f820116905080830192505050505050509192919290505050610400565b005b610201600480360360208110156101eb57600080fd5b8101908080359060200190929190505050610637565b604051808273ffffffffffffffffffffffffffffffffffffffff1673ffffffffffffffffffffffffffffffffffffffff16815260200191505060405180910390f35b6102856004803603602081101561025957600080fd5b81019080803573ffffffffffffffffffffffffffffffffffffffff169060200190929190505050610673565b604051808215151515815260200191505060405180910390f35b6102cb600480360360208110156102b557600080fd5b8101908080359060200190929190505050610693565b6040518086815260200180602001858152602001848152602001838152602001828103825286818151815260200191508051906020019080838360005b83811015610323578082015181840152602081019050610308565b50505050905090810190601f1680156103505780820380516001836020036101000a031916815260200191505b50965050505050505060405180910390f35b6000600254905090565b606060038054806020026020016040519081016040528092919081815260200182805480156103f057602002820191906000526020600020905b8160009054906101000a900473ffffffffffffffffffffffffffffffffffffffff1673ffffffffffffffffffffffffffffffffffffffff16815260200190600101908083116103a6575b5050505050905090565b60025481565b6000803373ffffffffffffffffffffffffffffffffffffffff1673ffffffffffffffffffffffffffffffffffffffff16815260200190815260200160002060009054906101000a900460ff161561045657600080fd5b60038151101561046557600080fd5b60016000803373ffffffffffffffffffffffffffffffffffffffff1673ffffffffffffffffffffffffffffffffffffffff16815260200190815260200160002060006101000a81548160ff02191690831515021790555060033390806001815401808255809150509060018203906000526020600020016000909192909190916101000a81548173ffffffffffffffffffffffffffffffffffffffff021916908373ffffffffffffffffffffffffffffffffffffffff1602179055505060008090505b600381101561058b578151811080156105545750600082828151811061054a57fe5b6020026020010151115b8015610575575060025482828151811061056a57fe5b602002602001015111155b61057e57600080fd5b8080600101915050610528565b5060018060008360008151811061059e57fe5b60200260200101518152602001908152602001600020600201600082825401925050819055506001806000836001815181106105d657fe5b602002602001015181526020019081526020016000206003016000828254019250508190555060018060008360028151811061060e57fe5b602002602001015181526020019081526020016000206004016000828254019250508190555050565b6003818154811061064457fe5b906000526020600020016000915054906101000a900473ffffffffffffffffffffffffffffffffffffffff1681565b60006020528060005260406000206000915054906101000a900460ff1681565b6001602052806000526040600020600091509050806000015490806001018054600181600116156101000203166002900480601f0160208091040260200160405190810160405280929190818152602001828054600181600116156101000203166002900480156107455780601f1061071a57610100808354040283529160200191610745565b820191906000526020600020905b81548152906001019060200180831161072857829003601f168201915b505050505090806002015490806003015490806004015490508556fea265627a7a72315820892d04df1aa8c567a09e07bc176c616772987395a79257f32f716388f35e2bf264736f6c63430005100032",
  "source": "// SPDX-License-Identifier: MIT\npragma solidity >=0.4.21 <8.10.0;\n\ncontract Poll {\n    struct Coin {\n        uint256 id;\n        string name;\n        uint256 firstPlaceCount;\n        uint256 secondPlaceCount;\n        uint256 thirdPlaceCount;\n    }\n\n    struct VotingList {\n        address voter;\n        address nextVoter;\n    }\n\n    mapping(address => bool) public voters;\n\n    mapping(uint256 => Coin) public coins;\n\n    uint256 public coinCount;\n\n    //VotingList public voteListLL;\n\n    address[] public voteList;\n\n   // event rankedEvent(uint256[] indexed _coinIds);\n\n    constructor() public {\n        addCoin(\"BTC\");\n        addCoin(\"ETH\");\n        addCoin(\"AVAX\");\n\n        //voteListLL = VotingList(\"null\", \"null\");\n    }\n\n    function addCoin(string memory _name) private {\n        coinCount++;\n        coins[coinCount] = Coin(coinCount, _name, 0, 0, 0);\n    }\n\n    function getTotalCoins() public view returns (uint256) {\n        return coinCount;\n    }\n\n    function getVoteList() external view returns (address[] memory) {\n        return voteList;\n    }\n\n    function rank(uint256[] memory coinIds) public {\n        require(!voters[msg.sender]);\n        require(coinIds.length >= 3);\n\n        voters[msg.sender] = true;\n        voteList.push(msg.sender);\n\n\n        /*\n        if (voteListLL.voter == 0x11111111111123) {\n            voteListLL = VotingList(msg.sender, \"null\");\n        } else {\n            voteListLL = VotingList(msg.sender, voteListLL.voter);\n        }\n        */\n\n        for (uint256 i = 0; i < 3; i++) {\n            require(\n                i < coinIds.length && coinIds[i] > 0 && coinIds[i] <= coinCount\n            );\n        }\n\n        coins[coinIds[0]].firstPlaceCount += 1;\n        coins[coinIds[1]].secondPlaceCount += 1;\n        coins[coinIds[2]].thirdPlaceCount += 1;\n\n        //emit rankedEvent(coinIds);\n    }\n}\n",
  "sourcePath": "/Users/rishabsolanki09@gmail.com/Downloads/Layer1-Ropsten-Poll/contracts/Poll.sol",
  "compiler": {
    "name": "solc",
    "version": "0.5.16+commit.9c3226ce.Emscripten.clang"
  },
  "schemaVersion": "3.3.4",
  "updatedAt": "2022-02-09T03:52:17.363Z",
  "networkType": "ethereum",
  "devdoc": {
    "methods": {}
  },
  "userdoc": {
    "methods": {}
  }
}