{
  "contractName": "Poll",
  "abi": [
    {
      "inputs": [],
      "payable": false,
      "stateMutability": "nonpayable",
      "type": "constructor"
    },
    {
      "anonymous": false,
      "inputs": [
        {
          "indexed": true,
          "internalType": "uint256[]",
          "name": "_coinIds",
          "type": "uint256[]"
        }
      ],
      "name": "rankedEvent",
      "type": "event"
    },
    {
      "constant": true,
      "inputs": [],
      "name": "coinCount",
      "outputs": [
        {
          "internalType": "uint256",
          "name": "",
          "type": "uint256"
        }
      ],
      "payable": false,
      "stateMutability": "view",
      "type": "function"
    },
    {
      "constant": true,
      "inputs": [
        {
          "internalType": "uint256",
          "name": "",
          "type": "uint256"
        }
      ],
      "name": "coins",
      "outputs": [
        {
          "internalType": "uint256",
          "name": "id",
          "type": "uint256"
        },
        {
          "internalType": "string",
          "name": "name",
          "type": "string"
        },
        {
          "internalType": "uint256",
          "name": "firstPlaceCount",
          "type": "uint256"
        },
        {
          "internalType": "uint256",
          "name": "secondPlaceCount",
          "type": "uint256"
        },
        {
          "internalType": "uint256",
          "name": "thirdPlaceCount",
          "type": "uint256"
        }
      ],
      "payable": false,
      "stateMutability": "view",
      "type": "function"
    },
    {
      "constant": true,
      "inputs": [
        {
          "internalType": "address",
          "name": "",
          "type": "address"
        }
      ],
      "name": "voters",
      "outputs": [
        {
          "internalType": "bool",
          "name": "",
          "type": "bool"
        }
      ],
      "payable": false,
      "stateMutability": "view",
      "type": "function"
    },
    {
      "constant": true,
      "inputs": [],
      "name": "getTotalCoins",
      "outputs": [
        {
          "internalType": "uint256",
          "name": "",
          "type": "uint256"
        }
      ],
      "payable": false,
      "stateMutability": "view",
      "type": "function"
    },
    {
      "constant": false,
      "inputs": [
        {
          "internalType": "uint256[]",
          "name": "coinIds",
          "type": "uint256[]"
        }
      ],
      "name": "rank",
      "outputs": [],
      "payable": false,
      "stateMutability": "nonpayable",
      "type": "function"
    }
  ],
  "bytecode": "0x608060405234801561001057600080fd5b506100556040518060400160405280600381526020017f42544300000000000000000000000000000000000000000000000000000000008152506100e260201b60201c565b6100996040518060400160405280600381526020017f45544800000000000000000000000000000000000000000000000000000000008152506100e260201b60201c565b6100dd6040518060400160405280600481526020017f41564158000000000000000000000000000000000000000000000000000000008152506100e260201b60201c565b610225565b6002600081548092919060010191905055506040518060a0016040528060025481526020018281526020016000815260200160008152602001600081525060016000600254815260200190815260200160002060008201518160000155602082015181600101908051906020019061015b929190610180565b5060408201518160020155606082015181600301556080820151816004015590505050565b828054600181600116156101000203166002900490600052602060002090601f016020900481019282601f106101c157805160ff19168380011785556101ef565b828001600101855582156101ef579182015b828111156101ee5782518255916020019190600101906101d3565b5b5090506101fc9190610200565b5090565b61022291905b8082111561021e576000816000905550600101610206565b5090565b90565b6105e2806102346000396000f3fe608060405234801561001057600080fd5b50600436106100575760003560e01c8063289fc9d21461005c578063678fd2891461007a5780637f6052ce14610098578063a3ec138d14610150578063c6610657146101ac575b600080fd5b61006461026f565b6040518082815260200191505060405180910390f35b610082610279565b6040518082815260200191505060405180910390f35b61014e600480360360208110156100ae57600080fd5b81019080803590602001906401000000008111156100cb57600080fd5b8201836020820111156100dd57600080fd5b803590602001918460208302840111640100000000831117156100ff57600080fd5b919080806020026020016040519081016040528093929190818152602001838360200280828437600081840152601f19601f82011690508083019250505050505050919291929050505061027f565b005b6101926004803603602081101561016657600080fd5b81019080803573ffffffffffffffffffffffffffffffffffffffff1690602001909291905050506104bf565b604051808215151515815260200191505060405180910390f35b6101d8600480360360208110156101c257600080fd5b81019080803590602001909291905050506104df565b6040518086815260200180602001858152602001848152602001838152602001828103825286818151815260200191508051906020019080838360005b83811015610230578082015181840152602081019050610215565b50505050905090810190601f16801561025d5780820380516001836020036101000a031916815260200191505b50965050505050505060405180910390f35b6000600254905090565b60025481565b6000803373ffffffffffffffffffffffffffffffffffffffff1673ffffffffffffffffffffffffffffffffffffffff16815260200190815260200160002060009054906101000a900460ff16156102d557600080fd5b6003815110156102e457600080fd5b60016000803373ffffffffffffffffffffffffffffffffffffffff1673ffffffffffffffffffffffffffffffffffffffff16815260200190815260200160002060006101000a81548160ff02191690831515021790555060008090505b60038110156103a45781518110801561036d5750600082828151811061036357fe5b6020026020010151115b801561038e575060025482828151811061038357fe5b602002602001015111155b61039757600080fd5b8080600101915050610341565b506001806000836000815181106103b757fe5b60200260200101518152602001908152602001600020600201600082825401925050819055506001806000836001815181106103ef57fe5b602002602001015181526020019081526020016000206003016000828254019250508190555060018060008360028151811061042757fe5b60200260200101518152602001908152602001600020600401600082825401925050819055508060405180828051906020019060200280838360005b8381101561047e578082015181840152602081019050610463565b5050505090500191505060405180910390207fc116eb8a2dc96a8112e9f373a663e24546499d940342aed55b20e2ae1ca34ab760405160405180910390a250565b60006020528060005260406000206000915054906101000a900460ff1681565b6001602052806000526040600020600091509050806000015490806001018054600181600116156101000203166002900480601f0160208091040260200160405190810160405280929190818152602001828054600181600116156101000203166002900480156105915780601f1061056657610100808354040283529160200191610591565b820191906000526020600020905b81548152906001019060200180831161057457829003601f168201915b505050505090806002015490806003015490806004015490508556fea265627a7a723158202d72eb830c93e4d8145b0e608e7207f594e32df4f327184043a2c8828bfc050464736f6c63430005100032",
  "source": "// SPDX-License-Identifier: MIT\npragma solidity >=0.4.21 <8.10.0;\n\ncontract Poll {\n\n    struct Coin {\n        uint id;\n        string name;\n        uint firstPlaceCount;\n        uint secondPlaceCount;\n        uint thirdPlaceCount;\n    }\n\n    mapping(address => bool) public voters;\n\n    mapping(uint => Coin) public coins;\n\n    uint public coinCount;\n\n    event rankedEvent (\n        uint[] indexed _coinIds\n    );\n\n    constructor() public{\n        addCoin(\"BTC\");\n        addCoin(\"ETH\");\n        addCoin(\"AVAX\");\n    }\n\n    function addCoin(string memory _name) private {\n        coinCount++;\n        coins[coinCount] = Coin(coinCount, _name, 0, 0, 0);\n    }\n\n    function getTotalCoins() public view returns (uint) {\n        return coinCount;\n    }\n\n    function rank(uint[] memory coinIds) public {\n        require(!voters[msg.sender]);\n        require(coinIds.length >= 3);\n\n        voters[msg.sender] = true;\n\n        for (uint i = 0; i < 3; i++) {\n            require(i < coinIds.length && coinIds[i] > 0 && coinIds[i] <= coinCount);\n        }\n\n        coins[coinIds[0]].firstPlaceCount += 1;\n        coins[coinIds[1]].secondPlaceCount += 1;\n        coins[coinIds[2]].thirdPlaceCount += 1;\n\n        emit rankedEvent(coinIds);\n    }\n\n}",
  "sourcePath": "/Users/rishabsolanki09@gmail.com/Downloads/Layer1-Ropsten-Poll/contracts/Poll.sol",
  "compiler": {
    "name": "solc",
    "version": "0.5.16+commit.9c3226ce.Emscripten.clang"
  },
  "schemaVersion": "3.3.4",
  "updatedAt": "2022-01-11T23:27:46.762Z",
  "networkType": "ethereum",
  "devdoc": {
    "methods": {}
  },
  "userdoc": {
    "methods": {}
  }
}